:020000040000FA
:02000000512885
:040002000034003492
:08000800090004308D000C0812
:100010008F000A3010201C2027208D0B0928080093
:1000200090000F0891008F0110088F0A91020318A9
:1000300015288F0311070800820703349F342534E5
:100040000D349934493441341F340134093490005B
:1000500008308E000616101C061286128616900CAA
:100060008E0B2A280800FF300D088E0144208E0BCD
:1000700037288D0B352808001E300D088E018E0B99
:100080003F288D0B3E280800861808003C20861C5F
:1000900047283C2086184A283C20861C4D283C20B6
:1000A00008008316CF30860081138312920101303D
:1000B000930003108C0112081302031C56288C00B5
:1000C0000520332033200310930D03185628920A7D
:0200D0005B28AB
:00000001FF
